:020000040800F2
:10000000180D002065010008D1480008413E000895
:1000100000000000000000000000000000000000E0
:10002000000000000000000000000000D7480008A9
:100030000000000000000000D5480008D948000872
:1000400077010008770100087701000877010008B0
:1000500077010008091300087701000877010008FC
:100060000000000051120008770100087701000825
:1000700077010008770100087D4900087701000832
:10008000770100087701000877010008654900083A
:1000900000000000770100087701000877010008E0
:1000A0007701000877010008770100087701000850
:1000B0007701000877010008000000000000000040
:1000C00000F002F800F03EF80CA030C80838241800
:1000D0002D18A246671EAB4654465D46AC4201D180
:1000E00000F030F87E460F3E0FCCB6460126334274
:1000F00000D0FB1AA246AB4633431847CC5300004E
:10010000EC530000103A02D378C878C1FAD85207ED
:1001100001D330C830C101D504680C6070470000BD
:100120000023002400250026103A01D378C1FBD813
:10013000520700D330C100D50B6070471FB51FBDFB
:1001400010B510BD00F0DAFE1146FFF7F7FF04F01E
:1001500073FE00F0F2FE03B4FFF7F2FF03BC00F001
:1001600027FF00000748804707480047FEE7FEE7F3
:10017000FEE7FEE7FEE7FEE704480549054A064BB1
:100180007047000061490008C10000081803002002
:10019000180D0020180700201807002001E004C0F7
:1001A000091F0429FBD28B0701D50280801CC907D7
:1001B00000D00270704700290BD0C30702D0027034
:1001C000401C491E022904D3830702D50280801CEB
:1001D000891EE3E70022EEE70022DFE700220309A1
:1001E0008B422CD3030A8B4211D300239C464EE052
:1001F00003460B433CD4002243088B4231D303090E
:100200008B421CD3030A8B4201D394463FE0C309BF
:100210008B4201D3CB01C01A524183098B4201D3D7
:100220008B01C01A524143098B4201D34B01C01AC2
:10023000524103098B4201D30B01C01A5241C3083A
:100240008B4201D3CB00C01A524183088B4201D3A9
:100250008B00C01A524143088B4201D34B00C01A95
:100260005241411A00D201465241104670475DE0AA
:10027000CA0F00D04942031000D34042534000222D
:100280009C4603098B422DD3030A8B4212D3FC22D6
:10029000890112BA030A8B420CD3890192118B4255
:1002A00008D3890192118B4204D389013AD092116B
:1002B00000E08909C3098B4201D3CB01C01A524126
:1002C00083098B4201D38B01C01A524143098B42EF
:1002D00001D34B01C01A524103098B4201D30B01D8
:1002E000C01A5241C3088B4201D3CB00C01A5241FD
:1002F00083088B4201D38B00C01A5241D9D24308E4
:100300008B4201D34B00C01A5241411A00D2014620
:10031000634652415B10104601D34042002B00D58A
:100320004942704763465B1000D3404201B500204C
:10033000C046C04602BD7047704770470246C80FAE
:10034000C00781434B0030B54B405B009B0D20D074
:100350001923DB06C91801231B05994220DB03245E
:10036000A40704251346AB400BD3002B04D1EB06A6
:1003700013409B00E34204D40124640700231219B4
:100380005941FF231B0599420BD2C9000143500F6D
:1003900009E0CB0204D501430803024305D0054818
:1003A00030BDFF21C905084330BD084607210905B6
:1003B000884330BD0000C07FF0B5F94D0C091E091F
:1003C0002C402E402F468BB0A7437DD0B543FCD0A8
:1003D000002E7AD0002CFCD00D465D40ED0F254359
:1003E000AC1BFF25AD0464190894C502440DC90275
:1003F0002143500DDC0204430120C00701430443A4
:10040000D2020191200C110C00958C460104234668
:100410008B430A9161460904E24D8A430991010A1E
:100420007D4449198039097805464D4301266D18E8
:10043000F605751B6943C90C640B891C4C43641891
:10044000B5012C1B250C2E04B4434C434D43210C09
:10045000691889090591009DE90701D00121C907A3
:1004600004912C4601996708CD072F434C08059D40
:10047000E10B4D432D0C29466646754302950D460A
:1004800045432E46029D7D1BB44100950D465D43BC
:1004900001942C0C2F040D465543AE462D0C3D43C4
:1004A000029503947546049C2D04641B049406D2A3
:1004B000029C039D641C002675410395029401ACC7
:1004C00070CC009F7D1B01E03EE162E1B441090474
:1004D0000095079101940599A4086143090C0C4605
:1004E0004443650BE7040C4666467443A646640B1A
:1004F0003C43039502947446049DE4042C1B04942D
:1005000006D2029C039D641C00267541039502944B
:1005100001AC70CC009F7D1BB44101940C465C4340
:100520000095650FE7000C465443A646640F3C4314
:10053000039502947446049DE4002C1B049406D297
:10054000029C039D641C002675410395029401AC36
:1005500070CC009F7D1BB441AE09AF06049DC9005D
:10056000AD092F43049DA406AD060495079D3443B1
:1005700069180791059DE10B4D432D0C29466646F0
:10058000754302950D4645432E46029D7D1BB441A1
:1005900000950D465D4301942C0C2F040D465543E8
:1005A000AE462D0C3D43029503947546049C2D04E4
:1005B000641B049406D2029C039D641C00267541B2
:1005C0000395029401AC70CC009F7D1BB441019453
:1005D0008C050694079C890A611800950791019C77
:1005E0000599A4086143090C0D464543680BEF04C7
:1005F0000D46644665436C0B3C43049FED047D1B34
:10060000AC4602D20025641C6841009E019D371B48
:1006100085410846584301950C46460FC500544392
:10062000600F28436546E4002C1B02D20025401CC5
:100630006E41019D3F1AB5412846BD0980062843F9
:100640008446A009BF064E020699A4067618074301
:10065000079D002068410A99079019430020099BD3
:1006600000906046FF1913434041E20F64003A4393
:10067000A4460446D71A8C41A04203D90120009019
:1006800020463A46C70F941840416246D20F224393
:10069000644664000494009CBE466400D71AA446D5
:1006A000044602978C417746002F01D1A04204D91D
:1006B0006046401C8446029A2046C40FA646941801
:1006C0004041049A0546D20F224364466400D31A7F
:1006D0008D417146002901D1A84202D928461A4607
:1006E000641C10430122002800D016436102002040
:1006F000079B891904465C410223002C02DB491840
:1007000013466441089DCE0A2D145D194B056705FB
:10071000E10A2C050D1908993E43C9076940002BD1
:1007200008D0934006D30022761C5141002B01D102
:10073000760876001C4A002D43DB154241D0AA43BF
:100740003FD030460BB0F0BD06180D464D41174C5A
:100750007642AC411AD395181C465C41134A6D424F
:10076000A24113D3012252054C00D4420AD15C00AD
:10077000D4420BD04B4002D592021143E2E749002C
:100780004908DFE75940C90FC90718E000200849A8
:10079000D8E7054801420DD10342F7D0F2E7000047
:1007A0000000FF07E44F00000000F07F0000E0FFC2
:1007B0000000F87F114859400143C0124140002019
:1007C000C0E70123089A9B069A4205DC03225207E0
:1007D0008918C90FC907B5E7052252078918074AC2
:1007E0001143D2125140ADE770B515461C46024682
:1007F0000B4628462146FFF7DFFD70BDFFFFFF7F58
:1008000030B50346CA02400D1043164D164C0A156A
:1008100002D02043002A06DBAA1A002A12DDD040AB
:10082000FF2A0BDC30BD5205520D01D140004008BB
:10083000AA1A07D4D0404042FF2A01DD002030BD73
:100840000028FCDD4A00002B01D0012000E0002040
:10085000101801225205D042F0D8C817C04360409A
:1008600030BD00001E040000000000800346CA02E4
:10087000400D10B510430A1504D00124E4072043AD
:10088000002A05DB0A4CA21A04D4D040FF2A00DD5E
:10089000002010BD4A00002B01D0012000E0002004
:1008A000101801225205D042F2D8C817C04310BD1B
:1008B0001E0400001F22030C02D10F22000402D0EC
:1008C000030E03D004E00020014670470002083AFE
:1008D000030F01D10001121F830F01D18000921E6E
:1008E000002801DB4000521E120551184205C012BB
:1008F000411810467047C10FC90700D0404201227D
:1009000092071143D6E701218907D3E7F0B58B4C55
:100910000F09254689B0BD437BD01D092646AE434D
:10092000FAD00E465E402740F60F3E43254071D078
:1009300024012142FBD0FF24AD19A4042D1B0395F3
:1009400001252D05DB02DB0AC9022B43C90A294315
:100950001E010901040F130F050121431701880B24
:10096000820391432D098C46A90B1E438A039543AC
:10097000B30B9A0396433F09BA0B9403A74302961D
:100980002E467E430497B6464E19D7190C4601965B
:10099000544305977E43371B7646BF1B3601B64648
:1009A000BE0B361900967646BC043719009C01D35D
:1009B000641C00946400002F01D001263443029E81
:1009C000049F754366467E430496760034196E0094
:1009D00034190094029C019E1C196643751BAE4697
:1009E000069465464519059C05956C435943754623
:1009F0000891691A0191049E01465143A41B049178
:100A0000611A009C0791E10605D06109012211439A
:100A100002E072E06EE06109089D00272C0A2D06B5
:100A20006918049D7C412A0A2D066918019D6241BE
:100A3000AC0DAD026D185441079A910D92025519F3
:100A40006141029A644658435443069B059A5A43AF
:100A5000121A131B9A0E9B015B187A41010B0005B9
:100A6000C3185141220A200644195A419A4200D221
:100A7000491C01204002814203D315230226F6437C
:100A800002E014230326F6432020C51AA940174686
:100A9000AF40DA400A4320460399D840091473183E
:100AA00019055118039A3843D2075140AC4009D078
:100AB0000122944006D30022401C5141002C01D158
:100AC000400840001E4A934212D301220398920626
:100AD000904207DB0520400709181A480143C0125D
:100AE000414004E0032040070818C10FC907002057
:100AF00009B0F0BD0020F107FAE705180C464C419B
:100B000011486D42A04115D394181A465A410E4817
:100B1000644290410ED301204A004005824209D32D
:100B20005A00824206D35940C90F084AC90700201B
:100B30001143DDE700200649DAE700000000FF0767
:100B4000FE070000FFFFFF7F0000E0FF0000F07FD6
:100B50000000F87F0121C9050123411842001B064E
:100B6000D3185B0E0AD0C1100722D206891840079D
:100B70005242D14201D5520089187047090208D566
:100B80000146002A03D0C10FC90700207047104654
:100B90007047420202D00020024970470721090530
:100BA0000143F4E70000F87FF0B5FF252D04C609E6
:100BB000C209FF2704462E400137CB093E43484077
:100BC0002A402B400746002A6BD0002B69D0AA424E
:100BD00067D0AB4265D0002800DA32460125ED052A
:100BE00029432C4309022002090AD21A4B0C7F2404
:100BF000E31A434C000A7C44E35C7D24240412196C
:100C000014145B00A218884201D3521C00E040007B
:100C100049420C465C4324115C43DB016415E31834
:100C2000040A5C43C502200D0C4644436419250A9E
:100C30005D432303EC0C0D46654300030019EB18DC
:100C40004C42A34201D35B18401CD4052018002B52
:100C500007D05B00C91804D3401C002901D140080B
:100C600040003F2189048A4209D3002A08DC11068A
:100C7000090F04D0032149074018C00FC007F0BD79
:100C800001224100120689187F2252069142F6D2B3
:100C900005214907C84201D59010F0BDFF20C005CD
:100CA000F0BD002F00DA32461648AA4207D2AB4206
:100CB00005D21902090E17D0F80FC007F0BDFF25A5
:100CC00063002D06AB42F9D84900A942F6D8AB42E1
:100CD00001D1A942F2D0A94201D1002101E0610075
:100CE0004908D0050843F0BD1102090EFBD0FF20D2
:100CF0000243D005F0BD0A460146104654E7000005
:100D00008E4800000000C07F10B501469E240002FE
:100D1000CA15A307002A02D01843002A04DBA21A2E
:100D2000002A0CDDD04010BD1206120E01D1400089
:100D30004008A21A03D4D04040420028F3DDFF222D
:100D400048001206904201D9002010BDC817C043C8
:100D5000584010BD1F22030C02D10F2200041CD0EA
:100D6000030E01D10002083A030F01D10001121F46
:100D7000830F01D18000921E002801DB4000521E2B
:100D8000D2055118021251181922904004D3491C5F
:100D9000002801D14908490008467047C10FC9071A
:100DA00000D04042012292071143D3E70121890775
:100DB000D0E70000F8B5224C4E00069DA6420AD8A6
:100DC000A64201D1002806D15E00A64203D8A64261
:100DD0000AD1002A08D00D24240425422CD029460B
:100DE000002000F061F8F8BD0C461C430CD4994279
:100DF00002D0EFF30080F8BD904202D0EFF3008004
:100E0000F8BDEFF30080F8BD09242407E5008B420C
:100E100006D0EFF30080A043591A06D2284304E01D
:100E2000101A05D3EFF30080A04380F30088F8BDCB
:100E3000EFF30080A043F1E7009500F04DF8F8BD16
:100E40000000E0FF10B5FF231B0644009C421DD8A4
:100E50004C009C421AD80346124A0B4307D4401A4E
:100E600002D3EFF3008010BDEFF3008010BD081A2D
:100E700006D2EFF3008001219043C907084302E046
:100E8000EFF30080904380F3008810BD0D231B0416
:100E90001A4204D01146002000F006F810BD00F000
:100EA00025F810BD00000090C80212D54803400F7D
:100EB000002804D0C803C043012188407047EFF3E5
:100EC00000800001000903210907084380F300881E
:100ED000704700207047000010B500200249029AB8
:100EE00000F033F810BD00000000F87F10B5024894
:100EF00000F02BF810BD00000000C07F754600F028
:100F000053F8AE46050069465346C008C000854602
:100F100018B020B5FFF730F960BC00274908B64685
:100F20000026C0C5C0C5C0C5C0C5C0C5C0C5C0C5F8
:100F3000C0C5403D49008D46704710B50446C046C7
:100F4000C0462046FFF707F910BD10B50C46110743
:100F5000090F092904D00A290AD008290CD104E074
:100F600011460820FFF7A0FF06E0510606D501E074
:100F7000510601D50120C007214610BDD10607D575
:100F800001010909CC084907000E0006044309E0E5
:100F9000410F20024907000A0143200E00061D22CE
:100FA000D14101430846E7E700487047B8020020F6
:100FB00001491820ABBEFEE7260002007047000082
:100FC00070B50446206803F00EF900282BD0206885
:100FD00003F0F4F8002807D120688168134A114013
:100FE0001031816000BF00BF01F0D8F8054614E061
:100FF00001F0D4F8401B02280FD920688068042132
:101000000840002809D0206E102108432066606E39
:10101000012108436066012070BD206880680421BA
:1010200008400028E4D10020F6E70000E8FFFF7F39
:1010300070B50546EC6A206E50210840002831D179
:10104000206E0121490208432066206803F0D1F890
:10105000002823D0206A002820D1206800680821B9
:10106000084008281AD1206803F0BDF800280DD1E7
:10107000206840680C21884321684860206EFF2169
:101080000131884301210843206607E0206E2021BA
:1010900008432066606E012108436066204600F028
:1010A00011FB0CE0206E10210840002803D02046E0
:1010B00000F091FB03E0A06D816B2846884770BD6E
:1010C00070B50546EC6A206E402108432066606ECC
:1010D000042108436066204600F07DFB70BD70B5BA
:1010E0000446E56A284600F075FB70BD70B50446FD
:1010F000206803F063F80646206803F065F80028CE
:1011000037D0002E35D1206880680521084001289D
:1011100006D1206803F03CF803202168086009E04C
:10112000206E102108432066606E0121084360662E
:10113000012070BD01F032F8054614E001F02EF8F0
:10114000401B02280FD920688068C007C00F002804
:1011500009D0206E102108432066606E01210843EB
:1011600060660120E5E720688068C007C00F00289E
:10117000E4D10020DDE7000038B5044600200090EF
:10118000206803F021F8002858D1206880682C4995
:101190000840002809D0206E102108432066606EA8
:1011A000012108436066012038BD206802F0F8FF85
:1011B000244802F0FDFF0121C905084000280DD098
:1011C000214922480068FFF709F8401C009002E01E
:1011D0000098401E009000980028F9D1E06901288D
:1011E0002CD000F0DBFF05461FE0206802F0ECFF8A
:1011F000002802D1206802F0D3FF00F0CFFF401B8F
:10120000022812D920680068C007C00F0121484099
:101210004840002809D1206E102108432066606EE6
:101220000121084360660120BEE720680068C0070E
:10123000C00F0121484048400028D6D00020B3E725
:101240001700008008270140400D03001400002013
:1012500010B5024800F034FD10BD000094000020DD
:1012600070B50446606C8008800009494018A0648D
:101270002178084608381421FEF7B0FF05460448D7
:101280008030E064E906C90E01208840206570BD09
:101290000008024002799106890E4A1E9200064B10
:1012A000D2184265044A403282654A1E93079B0F5A
:1012B00001229A40C26570470009024070B5C56CB2
:1012C000046D6C60446D002C02D0856DC46D6C6043
:1012D0000C4C64681C26456C35400126AE403443F6
:1012E000084D6C60046863608468102C04D1046845
:1012F000A2600468E16003E00468A1600468E26041
:1013000070BD00000000024010B5022000F038FE61
:101310000D4840680D49884215D10B4880680C493A
:10132000884210D10848C0680A4988420BD1064853
:1013300000680949884206D10348C069022802D1E1
:1013400006480149086010BD400200200713000054
:10135000B4280000C43A0000754600003051000077
:1013600072B600BFFEE70000F0B585B005460C463A
:101370000020039002900121C9072869884203D008
:10138000091D2869884200D100E000BF00BFE86D58
:10139000012802D1022005B0F0BD0120E86500BFA0
:1013A000286802F020FF002876D16068022874D0F7
:1013B0000121C9072869884203D0091D286988428C
:1013C00008D128682168826A4B035B0B1A4382624A
:1013D00000BFC6E02179CA06D20E0F219140A86E47
:1013E000884321684903490B002905D11F22920631
:1013F00021681140890E92E02178C907C90F0029A0
:1014000001D000218BE0022221681140022901D184
:10141000012184E0042221681140042901D1022124
:101420007DE0082221681140082901D1032176E0DE
:10143000102221681140102901D104216FE02022DF
:1014400021681140202901D1052168E0402221684E
:101450001140402901D1062161E08022216811401C
:10146000802901D107215AE0FF2201322168114071
:10147000914201D1082152E001225202216811401B
:10148000914201D109214AE00122920221681140D2
:10149000914203D10A2142E0FAE0BAE00122D202ED
:1014A00021681140914201D10B2138E00122120341
:1014B00021681140914201D10C2130E001225203F8
:1014C00021681140914201D10D2128E001229203AF
:1014D00021681140914201D10E2120E00122D20366
:1014E00021681140914201D10F2118E0012212041C
:1014F00021681140914201D1102110E001225204D3
:1015000021681140914201D1112108E00122920489
:1015100021681140914201D1122100E0002122797D
:10152000D206D20E91400843A86660688008401C2D
:10153000696A884215D82868226861680192836ABE
:10154000CF06FF0E0F22BA4093430F27BF06019A22
:101550003A40920ECF06FF0EBA401343836200BF9B
:1015600000BF286821680091A16801914269009933
:1015700009028A4300990B024B4F019939400B40F5
:101580001A43426100BF2068C00FC007002821D065
:10159000464802F00DFE06464549206888421AD1A9
:1015A000C0023040002816D1C802304301463F48EF
:1015B00002F032FE3F4940480068FEF70FFE401C33
:1015C0000C214843029002E00298401E02900298CB
:1015D0000028F9D162E03949206888420AD18002A6
:1015E0003040002806D18802304301462F4802F0DF
:1015F00013FE53E03249206888424FD14002304008
:1016000000284BD1480230430146284802F004FE2E
:1016100044E00121C9072869884203D0091D2869CF
:10162000884208D128682168826A4B035B0B9A4381
:10163000826200BF00BF2068C00FC00700282DD005
:101640001A4802F0B5FD064619492068884207D1BC
:10165000C202304690430146144802F0DDFD1DE011
:1016600016492068884207D18202304690430146DD
:101670000E4802F0D1FD11E01149206888420DD1D9
:101680004202304690430146084802F0C5FD05E09D
:10169000286E2021084328660120039000BF002007
:1016A000E86500BF039876E600FFFF0708270140C2
:1016B000001000B0400D030014000020004000B8EE
:1016C000002000B4FEB504463949206888426ED136
:1016D000204600F069FA00BF364A928D23899B08A4
:1016E0009A401146344A5289344B5A431046FEF709
:1016F00075FD0546FFF75AFB029021898A0830499B
:10170000D1400846FFF752FB2A490190C88DFFF7E8
:101710004DFB0090029903F0EBFD07460199FFF79E
:1017200043FA0646274903F0E3FD05462649FFF73D
:101730003BFA204908632048203040891E49098926
:10174000401A23D01B49498D2289920891400846AE
:10175000FFF724FB0090029903F0CAFD1B4901909A
:10176000FFF722FA0746FFF7CFFA13490989401A13
:101770006421484306461048203040890E4A1289A9
:10178000811A3046FEF734FD1E3000E01048054651
:10179000FFF704FB07494863012106482030017226
:1017A000032201460A31204600F09AF900BFFEBD2F
:1017B0000024014040020020A075FF1FB80B00006C
:1017C000FF0F00000000404000007A4400803B45CD
:1017D000FF7F000070477047FEB50446002002906E
:1017E000002500260190002C01D10120FEBD606C77
:1017F000012800D100BF2069002805D0012149053A
:101800002069884200D100BF206E002805D1204603
:1018100000F028F900206066E065206802F0DCFC3A
:10182000002817D120688168874A114001221207D9
:101830001143816000BF854985480068FEF7CEFCF2
:10184000401C4000019002E00198401E0190019868
:101850000028F9D1206802F0BFFC002809D1206ED1
:10186000102108432066606E012108436066012054
:101870000290206802F0B7FC0746206E1021084055
:1018800000287DD1002FFCD1206E09018843022160
:1018900008432066206802F097FC00287ED1A169E9
:1018A0008903A0680843E169C9030843216A490321
:1018B0000843A16B002902D00121090300E00021A7
:1018C0000843E16808432169C90FC907002903D00B
:1018D00021694900490801E0012149050843616B7C
:1018E000490008430543A06A01280ED1206A002858
:1018F00003D101200004054307E0206E20210843A6
:101900002066606E012108436066E06A002806D008
:10191000FF21C131E06A0840216B0843054320687C
:10192000C0684C49084028432168C8606068800F3F
:101930008007616D08430643606C01280BD1606825
:10194000800F800701210843A16C0843E16C084324
:10195000216D08430643206800693F490840304331
:1019600021680861032189076068884216D04942CE
:101970006068884212D04900606888420ED001E059
:1019800059E00BE0354880680F21890488430F2215
:101990009204616811400843304988600021E26B7D
:1019A000206802F040FC2E49226C206802F03BFCCB
:1019B0002069002807D12068806A0F21C9430843A5
:1019C0002168886211E001214905206988420CD113
:1019D000A08C401E4007C10E0F20C0438840A16E5E
:1019E00008432168896A2168886221680020009183
:1019F00000994969042202400723934019400422B8
:101A00000240D140E06B814208D100206066206E28
:101A10000221884301210843206612E0206E022142
:101A20008843102108432066606E012108436066E8
:101A30000120029005E0206E10210843206601205D
:101A400002900298D2E60000E8FFFF7F400D0300FD
:101A5000140000200102FEFF02FCFF1F00270140CE
:101A600004FFFF0738B504461949206888422DD184
:101A700000BF18480068012109050843154908609E
:101A800008460068012109050840009000BF00BF1A
:101A90001148124908600520486000210F48816004
:101AA000C16080210161490041618900816120217B
:101AB000C1610021016200F08DF9002801D0FFF71B
:101AC0004FFC00BF0548A065C46200BF38BD0000E0
:101AD0000024014040100240080002409400002011
:101AE000F8B504460E461746206802F07CFB002835
:101AF0004ED100BFE06D012801D10220F8BD0120C8
:101B0000E06500BF2068C068C007C00F00280DD185
:101B1000206802F059FB002802D0206802F038FB50
:101B20002068C068012108432168C8602046FFF78B
:101B300023FB0546002D2CD1206E17490840FF21BC
:101B4000013108432066002060661448A16D0863D7
:101B50001348A16D48631348A16D88631C20216858
:101B6000086000BF0020E06500BF206840681021C9
:101B70000843216848602268114640313B4632469E
:101B8000A06D00F083F90546206802F03DFB00E0FF
:101B900002252846B2E70000FEF1FFFF31100008E1
:101BA000DF100008C110000870B5044600BFE06DEA
:101BB000012801D1022070BD0120E06500BF204650
:101BC000FFF7FEF90546002D2CD1A06D806A022892
:101BD00009D1A06D00F02CF80546002D03D0206E31
:101BE000402108432066206840681021884321680E
:101BF0004860002D04D12046FFF778FA054602E040
:101C00002046FFF773FA002D06D1206EFF21013127
:101C100088430121084320662068C06840084000CE
:101C20002168C86000BF0020E06500BF2846C2E709
:101C30000146002901D101207047886A022807D097
:101C40000420086400BF0020486200BF0120F3E7C1
:101C5000086800680E2290430A681060886C00686B
:101C6000FF22013290438A6C1060086800684008C7
:101C700040000A681060114840681C234A6C1A40F2
:101C80000123934018430D4A5060CA6C086D5060A0
:101C9000486D002809D0486D0068FF22013290434A
:101CA0004A6D10608A6DC86D50600120886200BF67
:101CB0000020486200BF00BFBEE7000000000240F5
:101CC00070B5044642480568206806681C20616CAF
:101CD0000140042088402840002820D004203040C3
:101CE00000281CD02068006820210840002805D169
:101CF00020680068042188432168086034484068EF
:101D00001C22616C114004228A4010433049486013
:101D1000606B00285BD02046616B884757E01C2031
:101D2000616C0140022088402840002826D0022013
:101D30003040002822D02068006820210840002878
:101D400007D1206800680A218843216808600120C3
:101D5000A0621F4840681C22616C114002228A4028
:101D600010431B49486000BF0020606200BF206B29
:101D700000282CD02046216B884728E01C20616C6D
:101D80000140082088402840002820D0082030400A
:101D900000281CD0206800680E2188432168086054
:101DA0000B4841681C22606C1040012282401143A4
:101DB0000748416001202064A06200BF00206062EB
:101DC00000BFA06B002802D02046A16B884770BDE1
:101DD0000000024010B50446002C01D1012010BDC6
:101DE000284A2168881A1421FEF7F8F980006064F7
:101DF0000220A0622068006823490840216808602A
:101E0000E168A06808432169084361690843A16942
:101E10000843E1690843216A0843216809680843C7
:101E2000216808602046FFF71BFA01218903A0689A
:101E3000884201D10020606020798006800EA16C6C
:101E40000860E16C206D4860606800280CD0606814
:101E5000042809D82046FFF71DFA0020616D0860AC
:101E6000A16DE06D486003E000206065A065E0655D
:101E7000002020640120A06200BF0020606200BF3B
:101E800000BFACE7080002400F80FFFFF8B5044632
:101E90000D4616461F460020009000BF606A0128CC
:101EA00001D10220F8BD0120606200BFA06A0128B4
:101EB00043D10220A062002020642068006840080E
:101EC0004000216808603B46324629462046FFF71D
:101ED000F5F9606B002806D0206800680E210843E1
:101EE000216808600BE020680068042188432168AD
:101EF0000860206800680A21084321680860A06C17
:101F00000068012109040840002805D0A06C006881
:101F100009120843A16C0860606D002806D0606D4E
:101F20000068FF2101310843616D08602068006886
:101F3000012108432168086007E08020206400BF79
:101F40000020606200BF012000900098AAE7000016
:101F500070B5044600F022F906462546681C0028A4
:101F600002D0054800682D1800BF00F017F9801B4B
:101F7000A842FAD370BD0000100000207047000096
:101F800010B504460A48C0682040002804D008481C
:101F9000C460204600F00EF8054800692040002883
:101FA00004D0034804612046FFF7E8FF10BD00009D
:101FB000001802407047000070B503460A46002131
:101FC000D7E001268E4014683440002C73D0157978
:101FD000AD07AD0F012D04D01579AD07AD0F022D62
:101FE00018D198684E000325B5400646AE433046EA
:101FF0004E00D568B54028439860586801258D404B
:102000000646AE4330461026556835402D098D40B2
:10201000284358601579AD07AD0F032D0BD0D86854
:102020004E000325B5400646AE4330464E00956847
:10203000B5402843D8601579AD07AD0F022D15D1F5
:10204000CD08AE001D462035A8594D07EE0E0F25D0
:10205000B5400646AE4330464E07F60E1569B5400C
:102060002843CD08AD001E462036705118684E003A
:102070000325B5400646AE4330461579AD07AD0F92
:102080004E00B54028431860032636045568354095
:10209000002D6DD03A4D8E08B600A8598D07EE0E72
:1020A0000F25B5400646AE43304605252D07AB4209
:1020B00002D1002510E05BE0324DAB4201D1012599
:1020C0000AE0314DAB4201D1022505E02F4DAB4274
:1020D00001D1032500E005258E07F60EB540284303
:1020E000274D8E08B600A851254D603D286805464D
:1020F000A54328460126360555683540002D02D0F7
:102100000546254328461E4D603D28606868054603
:10211000A54328460126760555683540002D02D096
:10212000054625432846164D603D6860144D203510
:1021300068680546A543284601267604556835405B
:10214000002D02D00546254328460D4D20356860F8
:1021500028680546A54328460126360455683540BB
:10216000002D02D0054625432846054D2035286020
:10217000491C1568CD40002D00D022E770BD00003D
:10218000601802400004005000080050000C00508D
:10219000002A01D0816100E0816270470148006837
:1021A00070470000080000200246506C202829D10A
:1021B00000BF106C012801D102207047012010647B
:1021C00000BF242050641068006840084000136875
:1021D00018601068006801231B0398431368186097
:1021E00010680068084313681860106800680123CD
:1021F0001843136818602020506400BF002010644A
:1022000000BFDAE70220D8E710B502460B46506C53
:10221000202828D100BF106C012801D1022010BD58
:102220000120106400BF242050641068006840083A
:10223000400014682060106801680F2424020846DA
:10224000A04301461802014310680160106800684D
:1022500001242043146820602020506400BF002027
:10226000106400BFDBE70220D9E7000008B500BF1B
:102270000949096801221143074A1160114609689A
:10228000C907C90F009100BF00BF04490968014395
:10229000024A116008BD00004010024000000140E9
:1022A00010B50446002C01D1012010BD606C00283F
:1022B00003D12064204600F0D1F924206064206816
:1022C000006840084000216808600F210906606826
:1022D000884321680861206880680121C903884318
:1022E00021688860E068012806D10121C903A0683F
:1022F00008432168886005E021218902A06808431D
:1023000021688860E068022802D180022168486064
:102310002068406813490843216848602068C06805
:102320000121C90388432168C860616920690843A5
:10233000A169090208432168C860216AE06908436D
:10234000216808602068006801210843216808604E
:102350000020E0642020606400202063A06400BFAF
:10236000A3E7000000800002FFB581B004461646D6
:102370001F46606C202874D100BF206C012802D158
:10238000022005B0F0BD0120206400BFFFF706FF6A
:10239000054619230122D1032046009501F074FE61
:1023A000002801D00120ECE7212060641020A06407
:1023B0000020E064666267856063608DFF280CD949
:1023C000FF2020853D480090208DC2B201231B06CE
:1023D0002046029901F03AFE0BE0608D20853748D7
:1023E0000090208DC2B201235B062046029901F0C5
:1023F0002DFE43E02A4620460A9901F09AFE002865
:1024000001D00120BDE7606A007821688862606AB7
:10241000401C6062608D401E6085208D401E2085BE
:10242000608D00282AD0208D002827D10095002219
:10243000802120460A9B01F027FE002801D00120C0
:102440009FE7608DFF280DD9FF2020850020009098
:10245000208DC2B201231B062046029901F0F6FD31
:102460000CE028E0608D208500200090208DC2B215
:1024700001235B062046029901F0E8FD608D0028EB
:10248000B8D12A4620460A9901F028FE002801D03A
:10249000012076E720202168C8612068406808494B
:1024A000084021684860202060640020A06400BFCC
:1024B000206400BF65E7022063E700000020008081
:1024C00000E800FEFFB583B004460C9F0E9E606CD2
:1024D00020287CD1002F02D00D98002805D10120A2
:1024E0004002E064012007B0F0BD00BF206C01286D
:1024F00001D10220F7E70120206400BFFFF74EFE64
:10250000054619230122D1032046009501F0BCFDA8
:10251000002801D00120E6E7222060644020A0646A
:102520000020E06467620D9860850020606300967B
:102530000195204604A90EC901F048FD002805D0E8
:1025400000BF0020206400BF0120CCE7608DFF2881
:102550000CD9FF2020853F480090208DC2B2012376
:102560001B062046049901F071FD0BE0608D20856B
:1025700038480090208DC2B201235B0620460499A2
:1025800001F064FD00BF334600220421204600957F
:1025900001F07AFD002801D00120A4E72068406AFC
:1025A000616A0870606A401C6062208D401E208550
:1025B000608D401E6085608D00282BD0208D002806
:1025C00028D13346002280212046009500E03EE0DD
:1025D00001F05AFD002801D0012084E7608DFF281A
:1025E0000CD9FF20208500200090208DC2B201234D
:1025F0001B062046049901F029FD0BE0608D208523
:1026000000200090208DC2B201235B062046049971
:1026100001F01CFD608D0028B5D12A4631462046C8
:1026200001F05CFD002801D001205CE7202021683A
:10263000C861206840680849084021684860202037
:1026400060640020A06400BF206400BF4BE702204C
:1026500049E700000024008000E800FE10B590B0BB
:10266000044614210BA8FDF7B7FD282101A8FDF7AA
:10267000B3FD1E492068884235D1202001900020FA
:10268000049001A800F03AF9002801D0FEF768FE96
:1026900000BF1748406B02210843154948630846AC
:1026A000406B02210840009000BF00BFC0200B908B
:1026B00012200C9000200D900E9006200F900BA978
:1026C0000C48FFF779FC00BF0948C06B01214905A0
:1026D00008430749C8630846C06B01214905084003
:1026E000009000BF00BF10B010BD000000540040BB
:1026F000001002400004005070B50446002C01D1C7
:10270000012070BD184821680860184821680860D9
:102710002168606848602168A0688860FFF73EFD16
:1027200005460CE0FFF73AFD401B312807D9206829
:10273000C0684007400F002801D00320E1E720686F
:10274000C0684007400F0028ECD120680169E068AC
:10275000814203D02168E068086102E004482168F2
:1027600008600020CDE70000CCCC000055550000EB
:10277000AAAA0000014602480A68106000207047BB
:10278000AAAA0000034800680349096840180149E3
:1027900008607047080000201000002010B50024D9
:1027A00008480068FF2101310843064908600320FA
:1027B00000F00AF8002801D0012401E000F034F80C
:1027C000204610BD00200240F8B5044600251348FD
:1027D000006800281ED0114801687D20C000FDF768
:1027E000FDFC074639460E480068FDF7F7FC064633
:1027F00000F0FEFD00280BD1042C07D20022214658
:10280000401E00F045F80748046004E0012502E09E
:10281000012500E001252846F8BD00001000002039
:10282000140000200C00002008B500BF0E4800680E
:10283000012108430C49086008460068C007C00F22
:10284000009000BF00BF00BF07484038C06B89053B
:10285000084305494039C8630846C06B090408406D
:10286000009000BF00BF08BD401002400146002993
:1028700009DB00BF00BFCB06DB0E01229A40034BF1
:102880001A6000BF00BF00BF7047000000E100E019
:1028900070B504460D4616462946204602F0C8F992
:1028A00070BD000070B5044611480068032149025C
:1028B000884320430E4908604815844216D10D49CB
:1028C00009680622514308460B49FDF787FC451C61
:1028D00005E0002D01D06D1E01E0032070BD04480D
:1028E00040690121890208408842F2D00020F5E7C2
:1028F000007000401400002040420F00FEB5044666
:1029000000270020029001214904206808408842E5
:102910007BD1002001909648C06BC9020840002876
:102920000ED100BF9248C06B08439149C863084666
:10293000C06B09040840009000BF00BF0120019057
:102940008C480068FF21013108438A490860FFF77D
:1029500025FC064606E0FFF721FC801B022801D972
:10296000032706E083480068FF2101310840002862
:10297000F1D000BF002F4BD17D484030C569032105
:1029800009020D40002D1AD0606AA84217D078487D
:102990004030C0698843054675484030C069012110
:1029A0000904084372494031C8610846C0690121E1
:1029B000090488436E494031C8610846C561E8078B
:1029C000C00F002813D0FFF7E9FB064607E0FFF72A
:1029D000E5FB801B6849884201D9032706E064486B
:1029E0004030C069022108400028F0D000BF002F0D
:1029F0000CD15F484030C069032109028843616AF5
:102A000008435B494031C86103E00DE0029700E0F4
:102A100002970198012806D15548C06B012109078A
:102A200088435349C86300BF2078C007C00F0028FF
:102A300009D04F48403040698008800061680843F1
:102A40004B494031486110212068084010280AD1C4
:102A5000474840304069032189028843A168084300
:102A600043494031486101214902206808408842B9
:102A70000AD13F4840304069032189048843616995
:102A800008433B49403148610121890220680840E0
:102A900088420AD1364840304069032109058843FD
:102AA000A16908433249403148612021206808402B
:102AB00020280AD12E484030406903210903884369
:102AC000E16808432A4940314861012189032068AF
:102AD0000840884213D12648403040698000800871
:102AE000E16908432249403148610906E0698842AA
:102AF00005D11F48C068891308431D49C8600121DA
:102B0000490520680840884214D11948403040697E
:102B100049008843216A0843154940314861012131
:102B20008905206A884205D11148C0688900084398
:102B30000F49C8600121C90220680840884215D1A8
:102B40000B484030406903218903884321690843C9
:102B5000074940314861012189032069884205D134
:102B60000348C068890008430149C8600298FEBD57
:102B700000100240007000408813000070B5044649
:102B80000D46002C01D1012070BD6B480068400744
:102B9000400FA84218D268480068C008C000284307
:102BA00065490860FFF7FAFA064607E0FFF7F6FA0C
:102BB000801B6249884201D90320E5E75E4800682E
:102BC0004007400FA842F1D10221206808400228A6
:102BD00015D1042120680840042807D1584880688E
:102BE0000721090388434018554988605448806884
:102BF0000F2109028843A168084351498860207861
:102C0000C007C00F002854D06068012808D14C4884
:102C1000006801214904084000282ED10120B3E7B3
:102C20006068022808D1464800680121490608402A
:102C3000002822D10120A7E76068002808D1404879
:102C40000068012189020840002816D101209BE775
:102C50006068032808D13A484030006A02210840E1
:102C600000280AD101208FE735484030C069022191
:102C70000840002801D1012086E731488068C0085B
:102C8000C000616808432E498860FFF787FA06464E
:102C900007E0FFF783FA801B2849884201D9032007
:102CA00072E727488068382108406168C900884277
:102CB000EFD1214800684007400FA84218D91E48AC
:102CC0000068C008C00028431B490860FFF766FA87
:102CD000064607E0FFF762FA801B1849884201D9CF
:102CE000032051E7144800684007400FA842F1D183
:102CF000042120680840042808D111488068072171
:102D000009038843E16808430D49886000F020F812
:102D10000B4989680F2212021140090A8900094AE9
:102D2000515CC906C90EC8400749086007480068D9
:102D3000FFF74AFD28E7000000200240881300004A
:102D400000100240A8530008140000200C000020CE
:102D5000FEB5354880683821084000280DD132483A
:102D6000006809020840C10A0120884000902F48ED
:102D70000099FDF733FA044654E02B488068382167
:102D80000840082801D12A4C4CE0274880683821A7
:102D90000840102834D12448C0688607B60F22485E
:102DA000C068702108400009401C0190022E0FD01D
:102DB000032E0CD11E480199FDF710FA1A49C96873
:102DC0007F2212021140090A484305460DE000BF68
:102DD00016480199FDF702FA1349C9687F221202C9
:102DE0001140090A4843054600BF00BF0E48C068AD
:102DF000400F471C39462846FDF7F0F9044611E01C
:102E00000948806838210840202801D1840209E05F
:102E10000548806838210840182802D17D24240202
:102E200000E000242046FEBD001002400024F40013
:102E300000127A00FEB50446002C01D10120FEBD2F
:102E40002078C007C00F00286FD0F7488768382166
:102E50000F40C0688607B60F102F01D1032E01D096
:102E6000082F0BD1F04800680121490408400028D0
:102E70005BD06068002858D10120E0E700BF012145
:102E800009046068884205D1E74800680843E649BC
:102E9000086021E005210904606888420ED1E248FB
:102EA0000068012189040843DF490860084600687A
:102EB000012109040843DC4908600DE0DA48006894
:102EC000012109048843D8490860084600680121A7
:102ED00089048843D449086000BF6068002812D084
:102EE000FFF75CF9054606E0FFF758F9401B642838
:102EF00001D90320A3E7CC48006801214904084018
:102F00000028F1D011E0FFF749F9054606E0FFF788
:102F100045F9401B642801D9032090E7C2480068A6
:102F20000121490408400028F1D10221206808400D
:102F3000022873D1BC488068382108400746BA4847
:102F4000C0688607B60F102F01D1022E01D0002FC6
:102F500036D1B5480068012189020840002804D014
:102F6000E068002801D1012069E7AF4840687F216F
:102F700009028843616909020843AB494860002F90
:102F800016D1084600680721C90288432169084311
:102F9000A5490860084600680722D2021040C20A0C
:102FA000012090400146A148FDF718F9A0490860AA
:102FB000A0480068FFF708FC002849D001203EE740
:102FC000E06800282BD0984800680721C902884390
:102FD0002169084394490860084600688915084338
:102FE00091490860FFF7DAF8054606E0FFF7D6F8E2
:102FF000401B022801D9032021E78B4800680121EA
:10300000890208400028F1D0874840687F210902E2
:1030100088436169090208438349486018E082488F
:103020000068FF21013188437F490860FFF7B6F847
:10303000054606E0FFF7B2F8401B022801D903203D
:10304000FDE6794800680121890208400028F1D195
:10305000082120680840082849D173488068382131
:10306000084018280BD170484030006A02210840FF
:1030700000283CD0A069002839D10120DFE6A069F2
:1030800000281AD068484030006A01210843664988
:1030900040310862FFF782F8054606E0FFF77EF848
:1030A000401B022801D90320C9E65F484030006A6E
:1030B000022108400028F1D019E05B484030006A46
:1030C00040084000584940310862FFF767F805465C
:1030D00006E0FFF763F8401B022801D90320AEE6A3
:1030E00051484030006A022108400028F1D10421F3
:1030F0002068084004287CD1002001904A4880685C
:103100003821084020280BD147484030C0690221AF
:10311000084000286ED0A06800286BD101208EE600
:103120004148C06B010F01208843002810D000BF28
:103130003D48C06B0121090708433B49C863084665
:10314000C06B09040840009000BF00BF012001903F
:1031500039480068FF2101310840002816D136485F
:103160000068084334490860FFF718F8054606E090
:10317000FFF714F8401B022801D903205FE62E4810
:103180000068FF21013108400028F1D000BFA0688D
:10319000012808D124484030C06901210843224950
:1031A0004031C86120E0A06805280FD11E4840309A
:1031B000C069042108431C494031C8610846C06900
:1031C0000121084318494031C8610DE016484030DC
:1031D000C0694108490014484030C161C0690421F8
:1031E000884311494031C86100BFA068002816D04B
:1031F00001E040E03EE0FEF7D1FF054607E0FEF7C4
:10320000CDFF401B0D49884201D9032017E606482F
:103210004030C069022108400028F0D01EE0FEF7CF
:10322000BDFF054614E00000001002400024F40039
:10323000140000200C0000200070004088130000E3
:10324000FEF7ACFF401B6649884201D90320F6E532
:103250006448C069022108400028F1D10198012882
:1032600008D160484038C06B0121090788435D4997
:103270004039C86300BFE06900285CD05948403835
:1032800080683821084010287CD0E069022853D19A
:1032900054484038006801210906884351494039A3
:1032A0000860FEF77BFF054606E0FEF777FF401B50
:1032B000022801D90320C2E54A48403800680121AC
:1032C000490608400028F0D1616A206A0843A16AD3
:1032D00009020843E16A0843216B0843616B084314
:1032E00040494039C968404A114008433D49403986
:1032F000C860084600680121090608433949403979
:1033000008600846C0680904084336494039C86067
:10331000FEF744FF054606E0FEF740FF401B02288B
:1033200001D903208BE52F48403800680121490668
:1033300008400028F0D050E02A48403800680121B9
:1033400009068843274940390860FEF727FF0546EC
:1033500006E0FEF723FF401B022801D903206EE59B
:103360002048403800680121490608400028F0D173
:103370001C484038C0681D4908401A494039C86097
:103380002BE0FFE7E069012800D158E515484038F7
:10339000C668B107890F206A81421CD17020304075
:1033A000616A884217D17F2000023040A16A090279
:1033B000884210D11F2040043040E16A88420AD17F
:1033C000072040063040216B884204D1710F490725
:1033D000606B814201D0012031E500202FE5000023
:1033E00088130000401002408C80C111FCFFFEEEEB
:1033F00070B504462546681E0949884201D9012056
:103400000CE0681E074948610321081F01F010FC09
:1034100000200449886107200861002070BD000079
:10342000FFFFFF0000E000E07047704770470000BA
:1034300030B502460B4600BFD06B012801D10220F7
:1034400030BD0120D06300BF0220106410684168C5
:1034500010688468174D1068A84206D10F252D0505
:103460000846A84301465868014370250846A8430A
:10347000014618680143106841600E4D1068A8426B
:1034800008D00125AD071068A84203D00A4D106886
:10349000A84207D180252046A843044698680443E3
:1034A000106884600120106400BF0020D06300BF5A
:1034B00000BFC5E7002C01400004004010B50446E1
:1034C000002C01D1012010BD206C002803D1E06345
:1034D000204600F01BF802202064211D206801F026
:1034E00055FA0120E06600BF60640121A164E16437
:1034F00021656165A16500BF00BFE0652166616669
:10350000A16600BF20640020DDE7000010B590B088
:10351000044614210BA8FCF75FFE282101A8FCF744
:103520005BFE31492068884241D10120400501906D
:103530000020099001A8FFF7E1F9002801D0FDF76C
:103540000FFF00BF294800680121C902084327492D
:10355000086008460068C9140840009000BF00BF1A
:1035600000BF22484038406B012108431F494039C1
:1035700048630846406BC007C00F009000BF00BF03
:1035800088150B9002200C900D9000200E900220C8
:103590000F900BA905200007FEF70EFD0022114633
:1035A0000E20FFF775F90E20FFF760F91AE01049B9
:1035B0002068884216D100BF0C480068C913084330
:1035C0000A490860084600680121C90308400090C4
:1035D00000BF00BF002211461320FFF759F9132046
:1035E000FFF744F910B010BD002C0140401002401C
:1035F000002000400146086C012801D001207047DE
:10360000022008640868C068012318430B68D8606A
:10361000124B0868984208D001239B07086898421B
:1036200003D00F4B086898420FD1086882680D4B91
:103630001A40062A0FD0D81F82420CD008680068B2
:10364000012318430B68186005E00868006801232F
:1036500018430B6818600020D1E70000002C0140DF
:103660000004004007000100F8B504460D460020A4
:10367000009000BFE06B012801D10220F8BD0120BD
:10368000E06300BF02202064206886683948064055
:10369000FF21090230468843064620688660286874
:1036A000502834D00CDC202851D004DC00284CD029
:1036B000102852D14AE030284AD040284DD13AE073
:1036C00060282ED0702807D001210903401A02D0AB
:1036D000401A42D10DE043E0EB686A68A9682068AF
:1036E00001F0B5F920688668772006432068866077
:1036F00036E0EB686A68A968206801F0A8F92068DC
:1037000080680121890308432168886028E0EA680D
:103710006968206801F0B6F95021206801F0A6F927
:103720001EE0EA686968206801F0FAF96021206803
:1037300001F09CF914E0EA686968206801F0A2F9D8
:103740004021206801F092F90AE000BF00BF00BFED
:103750002968206801F08AF902E00120009000BF8A
:1037600000BF0120206400BF0020E06300BF00987C
:1037700084E7000088FFCEFFFEB5044600200290DB
:1037800000BF6549206888427ED1E0690128FBD1ED
:10379000002048620021204600F037FB029002988A
:1037A000FDF704FB5D490190FDF7FEF90746FDF7C3
:1037B000D1F905460E462A46334600205849FCF703
:1037C000FBFD01910090FCF7B9FD56498863042187
:1037D000204600F01AFB0190FDF7E8FA074652492F
:1037E000FDF7E2F94F49C8630846816B4F4801F085
:1037F00055FD49D24B49886B4D4901F04FFDF8D238
:103800004849C86BFDF7A6F94A4A4B4B0191009015
:1038100001F010FD0AD24349C86B7F21C90501F0B0
:103820003DFD03D245483F49086167E03D49C86B0B
:10383000FDF790F9424A434B0191009001F0FAFCE8
:103840000ED23849C86BFDF785F900223E4B019135
:10385000009001F0BDFC03D23C48324908614DE0C4
:103860003049C86BFDF776F9354A5242384B019121
:10387000009001F0DFFC11D22A49C86BFDF76AF90C
:103880002C4A5242334B00E045E00191009001F098
:103890009FFC03D23048234908612FE02149C86BBF
:1038A000FDF758F9234A52422C4B0191009001F048
:1038B000C1FC0ED21B49C86BFDF74CF91D4A284BC1
:1038C0000191009001F084FC03D22648154908615B
:1038D00014E01448C16B0120800701F0DFFC0DD219
:1038E0001049C86BFDF736F9124A1F4B0191009041
:1038F00001F06EFC02D21D480A49086109480069BE
:103900001B490968884206D00648006918490860C2
:10391000012004490876FEBD002C014000247449B2
:103920000000F03F4002002000007A4400004442C2
:1039300000005042CDCCCCCCCCCCEC3F07130000E7
:10394000666666666666F63F0000F83FB4280000CB
:103950009999F13F3333F33FC43A00003333FB3FCF
:10396000CCCCFC3F75460000CCCC00403051000070
:1039700018000020F8B504460D46164600200090B9
:1039800000BFE06B012801D10220F8BD0120E063F7
:1039900000BF002E12D1EB686A682968206801F028
:1039A0008BF8206880690C21884321688861206831
:1039B0008069A96808432168886143E0042E14D116
:1039C000EB686A682968206801F0C3F8206880699C
:1039D0000321890288432168886120688069A96879
:1039E00009020843216888612CE0082E12D1EB6897
:1039F0006A682968206801F0D0F82068C0690C2145
:103A000088432168C8612068C069A96808432168A3
:103A1000C86117E00C2E13D1EB686A68296820682A
:103A200001F0DEF82068C069310288432168C8616E
:103A30002068C069A968090208432168C86101E0DB
:103A40000120009000BF0020E06300BF00989CE7C9
:103A500010B50446002C01D1012010BD206C0028B7
:103A600003D1E063204600F01AF802202064211DF3
:103A7000206800F08BFF0120E06600BF6064012138
:103A8000A164E16421656165A16500BF00BFE065D7
:103A900021666166A16600BF20640020DDE77047F3
:103AA000FCB504460D460027002D01D1606C10E0E6
:103AB000042D01D1A06C0CE0082D01D1E06C08E0D0
:103AC0000C2D01D1206D04E0102D01D1606D00E0BE
:103AD000A06D0190002D01D1E06D08E0042D01D111
:103AE000206E04E0082D01D1606E00E0A06E009011
:103AF0000198012802D10098012801D00120FCBDC5
:103B0000002D02D10220606415E0042D02D10221B3
:103B1000A16410E0082D02D10221E1640BE00C2D1C
:103B200002D10221216506E0102D02D1022161653A
:103B300001E00221A165002D02D10220E0650BE029
:103B4000042D02D10221216606E0082D02D10221B6
:103B5000616601E00221A166002D06D0042D0BD084
:103B6000082D10D00C2D1CD114E02068C068022153
:103B700008432168C86016E02068C0680421084333
:103B80002168C8600FE02068C068082108432168E8
:103B9000C86008E02068C068102108432168C86038
:103BA00001E0012700BF00BF002F27D101222946D5
:103BB000206800F03BFF12492068884208D00121AC
:103BC00089072068884203D00E49206888420FD1B7
:103BD000206886680C490E40062E0FD0C81F86420A
:103BE0000CD020680068012108432168086005E0C6
:103BF00020680068012108432168086038467EE794
:103C0000002C0140000400400700010010B50446EC
:103C10002068006902210840400800281CD0206864
:103C2000C06808404008002816D0481F2168086175
:103C30000120E061206880698007800F002803D0A0
:103C40002046FFF799FD05E0204600F0DBF820460E
:103C500000F0D9F80020E0612068006904210840E4
:103C6000800800281DD02068C0680840800800280F
:103C700017D0C843216808610220E061206880698C
:103C8000032109020840002803D02046FFF774FDF5
:103C900005E0204600F0B6F8204600F0B4F8002019
:103CA000E0612068006908210840C00800281CD095
:103CB0002068C0680840C008002816D0C8432168A2
:103CC00008610420E0612068C0698007800F002837
:103CD00003D02046FFF750FD05E0204600F092F8A3
:103CE000204600F090F80020E06120680069102173
:103CF0000840000900281DD02068C068084000095D
:103D0000002817D0C843216808610820E0612068B6
:103D1000C069032109020840002803D02046FFF7AC
:103D20002BFD05E0204600F06DF8204600F06BF812
:103D30000020E06120680069C007C00F01214840F1
:103D4000484000280CD02068C068084048404840DF
:103D5000002805D0C81E21680861204600F054F8EC
:103D60002068006980210840C00900280BD0206825
:103D7000C0680840C009002805D0C8432168086110
:103D80002046FFF752FB20680069FF2101310840FF
:103D9000000A00280CD02068C06880210840C009B3
:103DA000002805D01648216808612046FFF73CFB33
:103DB0002068006940210840800900280BD0206855
:103DC000C06808408009002805D0C8432168086100
:103DD000204600F034F8206800692021084040099E
:103DE00000280BD02068C06808404009002805D092
:103DF000C843216808612046FFF718FB10BD00008A
:103E0000FFFEFFFF70477047704702460020002901
:103E100006D0042907D0082908D00C290CD108E0C5
:103E20001368586B09E01368986B06E01368D86B49
:103E300003E01368186C00E000BF00BF70477047D4
:103E400000BFFEE701688969022211404908002984
:103E500002D000210268916201688969C907C90F0F
:103E6000012251405140002904D101688969114360
:103E70000268916170470000F7B584B004460E46B1
:103E80000020039020688769002506980290102082
:103E90003840102853D12168C8613CE0701C0028CC
:103EA00039D0FEF77BF90299401AB04201D8002EB2
:103EB00031D1206840680121890308400190A06C3D
:103EC00000902068806949000840C00B00280ED08F
:103ED0004910019888420AD00098202807D020680D
:103EE0004068084321684860FEF758F902900AE0EC
:103EF000FEF754F90299401A192804D920200543E5
:103F00000120039006E020688069202108404009D4
:103F10000028EDD000BF20688069202108404009BA
:103F2000002802D103980028B8D00398002802D1B5
:103F300020202168C86104200543012003902068E7
:103F40008769FF2001303840FF210131884206D1C6
:103F50000120054300022168C8610120039001206F
:103F60008002384001218902884206D10820054399
:103F7000C0012168C861012003900120400238403F
:103F800001214902884206D102200543000221682E
:103F9000C861012003900398002812D02046FFF743
:103FA00051FF206840680849084021684860E06C7B
:103FB0002843E064202060640020A06400BF2064E7
:103FC00000BF039807B0F0BD00E800FEFFB581B068
:103FD000044615461E460A9F1B48F2B20023009075
:103FE0002046029900F032F8394620460B9A00F03C
:103FF000A0F8002802D0012005B0F0BD012E03D1A9
:10400000E8B22168886211E0FF2000022840001217
:1040100021688862394620460B9A00F08AF8002809
:1040200001D00120E8E7E8B2216888620B983B469E
:10403000002240210090204600F026F8002801D000
:104040000120D9E70020D7E700200080F8B5069CC2
:104050008D05AD0D1604FF273F043E4035431D433B
:1040600025436D006D08009505686E68650D012794
:10407000BF023D40034F3D43AE43009D2E430568C4
:104080006E60F8BDFF63FF03F8B504460E461746A1
:104090001D4617E0681C002814D0FEF77FF806992B
:1040A000401AA84201D8002D0CD1E06C2021084311
:1040B000E064202060640020A06400BF206400BF92
:1040C0000120F8BD206880693040B04201D1012054
:1040D00000E00020B842DDD00020F2E770B50446D1
:1040E0000D4616461CE0324629462046FFF7C4FE20
:1040F000002801D0012070BDFEF750F8801BA842B7
:1041000001D8002D0CD1E06C20210843E064202070
:1041100060640020A06400BF206400BF0120EAE7C3
:10412000206880692021084040090028DBD0002059
:10413000E1E770B504460D4616461FE032462946B3
:104140002046FFF799FE002801D0012070BD681CB1
:10415000002813D0FEF722F8801BA84201D8002DBA
:104160000CD1E06C20210843E06420206064002032
:10417000A06400BF206400BF0120E7E720688069D9
:104180000221084040080028D8D00020DEE70000C7
:104190008168024A1140891C81607047E8FFFF7FF7
:1041A0008168024A1140491C81607047E8FFFF7F27
:1041B000014608680722920510407047014688684A
:1041C000022210404008704701468868C007C00FAF
:1041D0000122504050407047014688680122120772
:1041E0001040000F70470146886804221040800884
:1041F00070470146C868032292021040002801D18E
:10420000012070470020FCE78168024A1140091D27
:1042100081607047E8FFFF7F026807239B059A4390
:104220000A430260704730B5436904240D462540B7
:104230000724AC40A34304240C401546A5402B435F
:10424000436130BDF0B589B00D461446002006909C
:104250000790049005900A20062104AA01230092E9
:10426000019102900D2298216C48FEF72BF900284D
:104270007ED16846407C01026846007C014308B25A
:1042800008900898FCF737FB06460022644BFCF7C1
:104290003DFB0022634B03910290FCF78DF86160B7
:1042A00020606846C07C01026846807C014308B2F9
:1042B00008900898FCF71FFB0022594B03910290CD
:1042C000FCF724FB06460022564BFCF775F8E1602C
:1042D000A0606846407D00026946097D084300B23F
:1042E00008900898FCF707FB064600224C4BFCF7A9
:1042F0000DFB00224B4B03910290FCF75DF86161CE
:1043000020616168490049080022454B2668304613
:1043100000F090FF02D2002020606060E168490058
:10432000490800223E4BA668304600F083FF02D2C7
:104330000021A160E1606169490049080022384B11
:104340002669304600F076FF02D2002020616061CD
:10435000207EFCF7D8FA06460B46616849004908FA
:10436000206832460391029000F064FF09D200E019
:1043700043E061684900490826683046FCF776FA50
:104380002076E1684F007F08A668616A206A0246CD
:104390000B46039102903046394600F04BFF05D2A0
:1043A000E16849004908A0686162206261694F00C4
:1043B0007F082669E16AA06A02460B4603910290D3
:1043C0003046394600F036FF05D261694900490898
:1043D0002069E162A062207E13490880226A1046AB
:1043E000616AFCF743FA10494880A26A1046E16A04
:1043F000FCF73CFA0C4988800EE04220405D401CEE
:10440000C1B242204155405DFF2802DB002142201D
:104410004155012009B0F0BD0020FBE7F400002069
:1044200000003040C0FFDF4000000020F0B593B036
:10443000074620210AA8FBF7CFFE202102A8FBF7A0
:10444000CBFE072108A801720021417264200223DB
:104450000AAA982100905448FDF786FF002802D050
:10446000022013B0F0BD3220FDF772FD092108A82B
:10447000017204214172642002230AAA982100904B
:104480004948FDF771FF002801D00220E9E70A2022
:10449000FDF75EFD062108A80172442141726420E7
:1044A00002230AAA982100903F48FDF75DFF0028EB
:1044B00001D00220D5E70A20FDF74AFD082108A80F
:1044C000017205214172642002230AAA98210090FA
:1044D0003548FDF749FF002801D00220C1E70A2036
:1044E000FDF736FD202108A80172302141726420B9
:1044F00002230AAA982100902B48FDF735FF0028D7
:1045000001D00220ADE70A20FDF722FD432108A8D3
:1045100001724021C85DFCF7F6F90546234A244B99
:10452000FBF74AFF01910090FCF76AF9044608A8DE
:1045300044722004010E08A88172642003230AAA91
:10454000982100901848FDF70FFF002801D00220A5
:1045500087E70A20FDF7FCFC452108A80172052128
:104560004172642002230AAA982100900E48FDF7A8
:10457000FBFE002801D0022073E70A20FDF7E8FCCB
:10458000072108A8017201214172FF202D3002236A
:104590000AAA982100900448FDF7E6FE002801D001
:1045A00002205EE701205CE7F4000020800040006C
:1045B0002000403F0EB50020009001900290274857
:1045C0002749086000054860002125488160C160D6
:1045D0000121490501610421416100218161C1611D
:1045E00001620321416200218162C16201630121F4
:1045F0004163002181630721C1630164002141649B
:104600004165FDF7E9F8002801D0FCF7A9FE15483F
:10461000009000200190029069461148FCF7A4FE2A
:10462000002801D0FCF79CFE0F4800900420019068
:1046300069460B48FCF798FE002801D0FCF790FE75
:104640000A4800900820019069460548FCF78CFE56
:10465000002801D0FCF784FE0EBD000000240140BC
:1046600028000020001000B0002000B4004000B876
:1046700008B500BF0A48806B0121084308498863D8
:104680000846806BC007C00F009000BF00BF00222B
:1046900011460920FEF7FCF80920FEF7E7F808BDEF
:1046A0000010024000B587B0142102A8FBF794FD6A
:1046B00000BF2248406B0221084320494863084656
:1046C000406B02210840019000BF00BF00BF1B48A3
:1046D000406B01210843194948630846406BC007F5
:1046E000C00F019000BF00BF002203210903052075
:1046F0000007FDF74DFD02200290112000040390F9
:104700000020049002A905200007FDF755FC0320B6
:10471000000302900120039000200490059002A95C
:1047200005200007FDF748FC002211460520FEF792
:10473000AFF80520FEF79AF807B000BD0010024060
:1047400010B5154815490860154848600021134800
:1047500081600121C1600021016141618161C1610C
:104760000162FDF79DFD002801D0FCF7F9FD002155
:104770000A48FDF719FD002801D0FCF7F1FD0021E2
:104780000648FDF741FD002801D0FCF7E9FD0120B6
:104790000005FDF76BFD10BD00540040F400002043
:1047A000290B300010B50848084908600620486009
:1047B00007490648C1608160FDF79EFF002801D0CF
:1047C000FCF7CEFD10BD000000300040500100207D
:1047D000FF0F000010B50A480A4908600520C00113
:1047E00048600021074881606421C16000210161A7
:1047F0008161FEF763FE002801D0FCF7B1FD10BD1A
:1048000000200040D001002000B58BB000200790B0
:10481000089009900A9004900590069000900190ED
:1048200002900390274828490860402048600021F2
:10483000254881602549C160002101614161816194
:10484000FEF73CFE002801D0FCF78AFD01200003A2
:10485000079007A91C48FEF707FF002801D0FCF7C6
:104860007FFD1948FFF7F4F8002801D0FCF778FD28
:10487000002004900590069004A91348FEF7D8FD87
:10488000002801D0FCF76CFD002000900120019071
:10489000002002900390002269460B48FFF76AF857
:1048A000002801D0FCF75CFD02200090019004225A
:1048B00069460548FFF75EF8002801D0FCF750FD77
:1048C0000BB000BD002C014060010020FFFF000084
:1048D00000BFFEE77047704710B5FDF753FF10BDEE
:1048E00000B593B0382105A8FBF776FC00200190B5
:1048F00002900390049001204002FDF7D3FF0A20AC
:104900000590FF20013008900020099040200A9077
:1049100001200B9002200C9002210D9100210E919C
:1049200008210F91010410910106119101071291C4
:1049300005A8FEF77FFA002801D0FCF711FD07203B
:10494000019002200290002003900490022101A80F
:10495000FEF714F9002801D0FCF702FD13B000BDEA
:104960007047000010B50348FFF750F9024800F007
:1049700029FC10BDD00100204002002010B50248E3
:10498000FFF744F910BD00006001002010B5026877
:10499000214B984206D001239B07984202D01F4B1F
:1049A000984205D170241346A3431A464B681A4314
:1049B000194B98420FD001239B0798420BD0174BFD
:1049C000984208D0164B984205D0164B984202D018
:1049D000154B984206D1032424021346A3431A46DA
:1049E000CB681A4380241346A3434C6923431A46D9
:1049F00002608B68C3620B688362074B984205D0E4
:104A0000084B984202D0084B984201D10B690363CE
:104A10000123436110BD0000002C01400004004050
:104A200000200040004401400048014070B5CD0620
:104A3000ED0E0124AC402346046A9C430462046AE0
:104A4000CE06F60E1546B5402C43046270BD70B517
:104A50000C468168FF2636020D46B54329461D02E5
:104A6000154325432943816070BD00000A468168D3
:104A7000034B19400723134319438160704700001B
:104A80008FFFCFFF70B50B461446026A056A6D08AA
:104A90006D0005628169F0260D46B5432946250162
:104AA00029430A261546B5432A4615461D432A467C
:104AB0008161026270BD0000F0B50C46066A76089E
:104AC000760006628169056A134EB04206D001265F
:104AD000B607B04202D0114EB04201D1012600E02B
:104AE0000026002E05D0890889000E46164331465F
:104AF00001E001263143F0260F46B74339461E0137
:104B0000F0273E4031430A262F46B7433D46264014
:104B1000354381610562F0BD002C01400004004076
:104B200070B50B461446056A1026B54305628169C7
:104B3000026A0F2636030D46B5432946250329434D
:104B4000A0261546B5432A461D012A43816102620B
:104B500070BDF0B50C46066A1027BE430662816937
:104B6000056A032636020F46B7433946160231431B
:104B70000F2636030F46B74339461E030F273F0360
:104B80003E403143A0262F46B7433D462601A0278D
:104B90003E40354381610562F0BDF0B50C46066AC2
:104BA000FF270137BE430662C169056A890889008B
:104BB0000E4616433146F0260F46B74339461E01CE
:104BC000F0273E403143052676022F46B7433D4647
:104BD000260205277F023E403543C1610562F0BDD4
:104BE000F0B50C46066A01273F03BE430662C16961
:104BF000056A032636020F46B7433946160231438B
:104C00000F2636030F46B74339461E030F273F03CF
:104C10003E403143052676032F46B7433D462603E3
:104C200005277F033E403543C1610562F0BD0000AA
:104C300010B5002819DB1A4A03231B02D218830877
:104C40009B00D2588307DC0EFF23A3409A438B07B7
:104C50001B0E8407E40EA3401A43114B03242402C5
:104C60001B198408A4001A5118E00E4A03071B0FF1
:104C7000083B9B089B00D2588307DC0EFF23A34010
:104C80009A438B071B0E8407E40EA3401A43054B7F
:104C90000407240F083CA408A4001A5110BD00000A
:104CA00000E100E01CED00E0416A012900D07047FE
:104CB00002694169914234D12B4A0169914206D17E
:104CC0004169914203D10160284941614AE0274A84
:104CD0000169914206D14169914203D101602449A1
:104CE00041613FE0224A0169914206D14169914206
:104CF00003D101601F49416134E01E4A01699142BC
:104D000006D14169914203D101601B49416129E00B
:104D1000194A0169914225D14169914222D101602C
:104D200020E00269416991421CD9016901600E4A83
:104D30000169914202D10D49416113E00B4A0169B9
:104D4000914202D10A4941610CE0094A016991424C
:104D500002D10849416105E0064A0169914201D149
:104D60000549416100BFA2E707130000B428000015
:104D7000C43A0000754600003051000070B504468A
:104D8000E06902281BD10E496068884217D10D499D
:104D9000A068884213D10C49E06888420FD10B49C2
:104DA000206888420BD1206BFBF7D4FE0546002219
:104DB00001239B0700F00CFA01D80548206070BD64
:104DC00007130000B4280000C43A00007546000034
:104DD0003051000010B50446012C06D10122010318
:104DE00005200007FDF7D4F908E0002C06D10022C9
:104DF0000121090305200007FDF7CAF910BD70B5B0
:104E000005460C46012D0BD1012241030520000768
:104E1000FDF7BEF90320E0610020FFF7DBFF0AE0A9
:104E2000002D08D100220121490305200007FDF7CC
:104E3000AFF90120E06170BDFDF7B0FCFFF750FD58
:104E4000B748FDF785F8FFF72DFCFFF711FCFFF7DA
:104E500077FCFFF7D9FCFFF7BDFCFFF7A3FCFFF7DA
:104E6000A9FBB048FEF7C6FB0322AF49AF48FCF7E9
:104E700037FE0021AE48FEF713FE0421AC48FEF7D2
:104E80000FFE0020A8492A39486208600F21A64871
:104E900016300170A2488138A3492A3948613EE1A1
:104EA000A448FDF767FCA0480A38007A012806D11B
:104EB00000219D480A3801722038FFF75FFF9A48A9
:104EC0002A38007E012806D1002097492A39087621
:104ED0000846FFF7E9FE94482A38406A01285CD169
:104EE000954A91492A399548FFF7ACF9002854D1E1
:104EF0008D4916310878FBF706FD04460B468E49AE
:104F00000E684968490049082246304600F092F987
:104F100021D9854916310878FBF7F5FC04460B4684
:104F200085498E68C968490049082246304600F024
:104F300081F910D97C4916310878FBF7E4FC044666
:104F40000B467D490E6949694900490822463046A9
:104F500000F070F921D874482A38406870498139C6
:104F600088421AD170482A3880687549884214D11D
:104F70006D482A38C068734988420ED16A482A3879
:104F800000687149884208D167482A38C0690228F8
:104F900003D16E4864492A39086063482A3800689A
:104FA000684A811A904267D00ADC002816D0684906
:104FB0004018002844D06749401800287ED14EE0B0
:104FC00065480818002862D06349F6314018002867
:104FD00076D0624940180028F0D18DE052492A3934
:104FE0000020FFF70CFF0020FFF7F4FE5C484E495D
:104FF0002A3948608860C8600846406A002803D0A3
:105000000846406A022806D147482A38FFF70EFAB8
:1050100045492A39486244482A38406A02280ED154
:1050200041480A380078401CC1B23F480A38017034
:105030000078052803D14B483B492A3908606DE0C8
:105040003748813838492A39486045488860C860FF
:105050000020FFF7D4FE0020FFF7BCFE5EE03848DA
:1050600031492A3988603E48C8600020FFF7C7FEF2
:105070000020FFF7AFFE51E032482B492A39C860C3
:105080000120FFF7BCFE0020FFF7A4FE46E0264803
:105090002A3840682249813988420ED122482A386C
:1050A00080682749884208D11F482A38C0682549A6
:1050B000884202D10020FFF78DFE2FE029E0FFE7B4
:1050C00019482A38406816498139884213D1164850
:1050D0002A3880681A4988420DD113482A38C06896
:1050E0001849884207D110482A38C069022802D1DD
:1050F0000120FFF76FFE11E019480B492A3948607B
:105100008860C8600020FFF77AFE0020FFF762FE8B
:1051100004E0144804492A39086000BF00BFBFE614
:1051200088130000D00100206A020020280000201F
:10513000600100205001002088020020F4000020BF
:10514000B4280000C43A0000754600003051000049
:10515000F9ECFFFF53EAFFFF4FF4FFFF3151FFFF70
:10516000AAAA0000FFFF0000C16903290FD111495D
:105170000968002905D00F490968491E0D4A1160C8
:1051800017E00221C1610C490A4A116011E0C169AE
:1051900001290ED109490968002905D00749096884
:1051A000491E064A116004E00021C1610449034A16
:1051B000116070471C000020F04902002000002010
:1051C00080A9030000B503461846FFF7CDFF00BDD8
:1051D00070B501250C002D051C4310D4EC4206D4FB
:1051E000AC420AD4994200D070BD904270BDE942F1
:1051F00017D4EB4215D4994270BD894270BDEC4280
:1052000006D5AC42F9D58B4200D070BD824270BD4C
:105210006D004C00EC4204D25C00EC4201D28B42A7
:1052200070BD034C30B4FBF7C5FD30BC70BD00BF92
:105230001900160470B501251C002D050C4310D46F
:10524000EC4206D4AC420AD48B4200D070BD8242FC
:1052500070BDEB4217D4E94215D48B4270BD9B421E
:1052600070BDEC4206D5AC42F9D5994200D070BD74
:10527000904270BD6D005C00EC4204D24C00EC42E8
:1052800001D2994270BD0FB4034C0CBC03BC30B4C6
:10529000FBF790FD30BC70BD19001604012302001D
:1052A000DB050A430DD4DA4203D49A4207D488427C
:1052B0007047D84214D4D94212D4884270478042F1
:1052C0007047DA4203D59A42F9D5814270475B00B4
:1052D0004200DA4204D24A00DA4201D281427047E7
:1052E00010B5024AFBF7AEFD10BD00BF0900160461
:1052F00070B5420064414B005C41120E39D01B0E68
:1053000038D0FF2A3CD0FF2B3AD040024902400A55
:10531000490A060045184E43000A090AD2184843B4
:10532000ED017F3A0104731A4019190C4318990FC3
:1053300004D001215B0849075B1A521CD80904D329
:10534000401CF50301D19D0607D0FF2A08D2D505E0
:1053500006D0E4072043401970BD0125A843F4E7B7
:10536000002A01DCE00770BD2402FF202043C005B5
:1053700070BD1B0EFF2A03D0FF2B01D0E00770BDCC
:10538000FF2645003606B54206D84D00B54203D883
:10539000D218FF2A00D0E7E7004870BD0000C07FA8
:1053A000081C30445800000000000000000000000D
:1053B00000000000000000000000000000000000ED
:1053C00000000000000000000100000002000000DA
:1053D00003000000040000000600000007000000B9
:1053E00008000000090000000000000000000000AC
:1053F00000000000000000000100000002000000AA
:10540000030000000400000080807F7E7D7C7B7AAA
:105410007978777676757473727171706F6E6E6D60
:105420006C6C6B6A6A696868676666656464636306
:1054300062616160605F5F5E5E5D5D5C5C5B5B5A8C
:105440005A595958585757565655555554545353F9
:1054500052525251515050504F4F4F4E4E4D4D4D54
:105460004C4C4C4B4B4B4A4A4A494949484848479F
:1054700047474746464645454544444444434343DD
:1054800043424242424141418182838485868788EA
:10549000898B8C8D8E8F919293959697999A9C9DDE
:1054A0009FA0A2A3A5A7A8AAACAEB0B2B3B5B7B946
:1054B000BCBEC0C2C5C7C9CCCED1D4D7D9DCDFE20F
:1054C000E6E9ECF0F3F7FAFEE854000800000020EB
:1054D00024000000040100080C55000824000020EE
:1054E000F40C000020010008000000000000000093
:1054F0000000000004000000010000000024F4008F
:0C55000000000000F049020080A9030038
:04000005080000C12E
:00000001FF
